:040000000EEF00F00F
:02000800FF00F7
:08001800BBEF0EF0E1EF0DF06B
:1004000000000000000000000000000000000000EC
:1004100000000000000000000000000000000000DC
:0F0420000000000000000083D40302005A7300A4
:1004300000016351800B686F635163256A6F62AF7F
:1004400024EF02F026EF02F027EF02F06A816A51F2
:10045000D8B42DEF02F02FEF02F044EF02F06A293A
:10046000D8A435EF02F037EF02F03FEF02F0000EB4
:10047000606F000E616F000E626F000E636F628F1F
:10048000000E636F4CEF02F0000E606F000E616FA4
:10049000000E626F000E636F6751800B696F6851C9
:1004A0006919D8B456EF02F058EF02F059EF02F094
:1004B000688D67516725696F66AF61EF02F063EF82
:1004C00002F064EF02F069816951D8B46AEF02F07A
:1004D0006CEF02F081EF02F06929D8A472EF02F00C
:1004E00074EF02F07CEF02F0000E646F000E656F97
:1004F000000E666F000E676F668F000E676F89EFE4
:1005000002F0000E646F000E656F000E666F000E45
:10051000676F6A51695DD8B090EF02F092EF02F018
:10052000B9EF02F068AD97EF02F099EF02F09BEFA0
:1005300002F0800E681B6AC06BF069C06AF06BC085
:1005400069F060C06BF064C060F06BC064F061C0C3
:100550006BF065C061F06BC065F062C06BF066C0A7
:1005600062F06BC066F063C06BF067C063F06BC095
:1005700067F0000E6B6F6A5169C024F0256A245E33
:10058000000E255A25BECEEF02F0255009E11A0EC5
:10059000245CD8A0CEEF02F0D0EF02F007EF03F01A
:1005A0006051611162116311D8A4D9EF02F0DCEF40
:1005B00002F0010EDDEF02F0000E6B6F000E606FB7
:1005C000000E616F000E626F000E636F69C06AF00B
:1005D00010EF03F06BA1EFEF02F0F1EF02F0F7EF95
:1005E00002F0D8906B3101096B6FF9EF02F0D890EF
:1005F0006B3360A1FEEF02F000EF03F001EF03F0B8
:100600006B8F633563336233613360336A2B6951B7
:100610006A5DD8A00EEF03F010EF03F0EAEF02F0EE
:1006200068BD15EF03F017EF03F057EF03F06A51C1
:10063000D8A41DEF03F01FEF03F029EF03F0000E25
:10064000606F000E616F000E626F000E636F78EFD7
:1006500004F064516027655161236651622367513C
:10066000632363A136EF03F038EF03F0E4EF03F008
:100670006BA13DEF03F03FEF03F045EF03F0D8909F
:100680006B3101096B6F47EF03F0D8906B3360A1BA
:100690004CEF03F04EEF03F04FEF03F06B8F633539
:1006A00063336233613360336A2BE4EF03F06451E8
:1006B000605D65516159665162596351800A246ECB
:1006C0006751800A2458D8B068EF03F06AEF03F04E
:1006D00095EF03F06051645D246E61516559256E9C
:1006E00062516659266E63516759276EFF0E2424A6
:1006F000606FFF0E2520616FFF0E2620626FFF0ED8
:100700002720636F800E681B6B6D6B51D8A48BEF35
:1007100003F08DEF03F09DEF03F0010E6027000E54
:100720006123622363239DEF03F06451605F655191
:10073000615B6651625B6751635B6051611162117D
:100740006311D8A4A6EF03F0A8EF03F0DDEF03F0E8
:100750006B51D8A4AEEF03F0B0EF03F0DDEF03F080
:10076000000E606F000E616F000E626F000E636F0F
:1007700078EF04F0D89060376137623763376BAF3A
:10078000C4EF03F0C6EF03F0C7EF03F060816BA185
:10079000CCEF03F0CEEF03F0D2EF03F0D8806B374D
:1007A000D4EF03F0D8906B376A51D8B4DAEF03F086
:1007B000DCEF03F0DDEF03F06A0762AFE2EF03F076
:1007C000E4EF03F0BAEF03F0000E696F6BAFEBEFED
:1007D00003F0EDEF03F005EF04F06BC024F07F0EA3
:1007E0002416D8B4F6EF03F0F8EF03F0FCEF03F0B3
:1007F000010E696F05EF04F060A101EF04F003EF53
:1008000004F005EF04F0F8EF03F06951D8B40BEFF2
:1008100004F00DEF04F038EF04F0010E6027000E35
:1008200061236223632363A118EF04F01AEF04F03D
:1008300038EF04F060C024F061C025F062C026F0FB
:1008400063C027F02734273226322532243224C0D1
:1008500060F025C061F026C062F027C063F06A290D
:10086000D8B435EF04F037EF04F038EF04F06A2B1A
:100870006A29D8B43EEF04F040EF04F048EF04F0EA
:100880006A51D8A446EF04F048EF04F05AEF04F0A0
:10089000000E606F000E616F000E626F000E636FDE
:1008A0006A51D8A456EF04F058EF04F05AEF04F060
:1008B000000E686F6AA15FEF04F061EF04F064EF6F
:1008C00004F0628F65EF04F0629FD8906A31636F25
:1008D00068AF6DEF04F06FEF04F070EF04F0638F1A
:1008E00060C060F061C061F062C062F063C063F03C
:1008F000120000017551800B7E6F75517525846F54
:1009000074AF85EF04F087EF04F088EF04F0848182
:100910008451D8B48EEF04F090EF04F0A3EF04F00C
:100920008429D8A496EF04F098EF04F0A0EF04F027
:10093000000E726F000E736F000E746F000E756FF5
:10094000748FABEF04F0000E726F000E736F000E29
:10095000746F000E756F7951800B7E1B795179256C
:100960007F6F78AFB6EF04F0B8EF04F0B9EF04F0A2
:100970007F817F51D8B4BFEF04F0C1EF04F0D4EF12
:1009800004F07F29D8A4C7EF04F0C9EF04F0D1EF39
:1009900004F0000E766F000E776F000E786F000E79
:1009A000796F788FDCEF04F0000E766F000E776FB2
:1009B000000E786F000E796F7F51D8B4E2EF04F02B
:1009C000E4EF04F0ECEF04F08451D8A4EAEF04F073
:1009D000ECEF04F0F6EF04F0000E726F000E736F90
:1009E000000E746F000E756FA0EF06F07851720361
:1009F0006F00CCFF89F06F00D0FF8AF08951806FC3
:100A0000816B826B836B8A51856F866B876B886B7A
:100A1000775173036F00CCFF89F06F00D0FF8AF02D
:100A200089518027000E8123822383238A518527C1
:100A3000000E862387238823765174036F00CCFF32
:100A400089F06F00D0FF8AF089518027000E812342
:100A5000822383238A518527000E862387238823B8
:100A600082C083F081C082F080C081F0806B7651BB
:100A700073036F00CCFF89F06F00D0FF8AF08951BB
:100A800080278A518123000E8223000E8323775111
:100A900072036F00CCFF89F06F00D0FF8AF089519C
:100AA00080278A518123000E8223000E832382C077
:100AB00083F081C082F080C081F0806B7651720338
:100AC0006F00CCFF89F06F00D0FF8AF0895180273A
:100AD0008A518123000E8223000E832378517303F1
:100AE0006F00CCFF89F06F00D0FF8AF08951852715
:100AF0008A518623000E8723000E882377517403C2
:100B00006F00CCFF89F06F00D0FF8AF089518527F4
:100B10008A518623000E8723000E882378517403A0
:100B20006F00CCFF89F06F00D0FF8AF089517A6F97
:100B30008A517B6F7C6B7D6B7CC07DF07BC07CF0D1
:100B40007AC07BF07A6B7A5185277B5186237C5162
:100B500087237D51882380C07AF081C07BF082C0DA
:100B60007CF083C07DF0190EBBEF05F0D8907D338B
:100B70007C337B337A33E82EB6EF05F07A51852744
:100B80007B5186237C5187237D51882382C083F04B
:100B900081C082F080C081F0806B7F5184C07AF088
:100BA0007B6B7A27000E7B23820E7A25896FFF0EDE
:100BB0007B218A6FF1EF05F0D8908537863787372C
:100BC000883783AFE6EF05F0E8EF05F0E9EF05F0D1
:100BD0008581D89080378137823783378907D8A0BD
:100BE0008A0787AFF6EF05F0F8EF05F0DCEF05F0C8
:100BF000000E7F6F83AFFFEF05F001EF06F025EFEA
:100C000006F0FF0E80157A6FFF0E81157B6FFF0EC9
:100C100082157C6F7F0E83157D6F7A517B117C115D
:100C20007D11D8B416EF06F018EF06F01CEF06F0B1
:100C3000010E7F6F25EF06F085A121EF06F023EF6F
:100C400006F025EF06F018EF06F07F51D8B42BEF31
:100C500006F02DEF06F051EF06F0010E8527000E8D
:100C600086238723882388A138EF06F03AEF06F021
:100C700051EF06F085C07AF086C07BF087C07CF02B
:100C800088C07DF07D357D337C337B337A337AC009
:100C900085F07BC086F07CC087F07DC088F0894BF2
:100CA0008A2B8ABF5CEF06F08A5108E18929D8A017
:100CB0005CEF06F05EEF06F068EF06F0000E856F61
:100CC000000E866F800E876F7F0E886F96EF06F09E
:100CD0008ABF75EF06F08A5106E18905D8B073EF37
:100CE00006F075EF06F081EF06F0000E856F000E3E
:100CF000866F000E876F000E886F000E7E6F96EF76
:100D000006F089C084F0FF0E8517FF0E86177F0E50
:100D10008717000E881784A190EF06F092EF06F077
:100D200093EF06F0878FD8908431886F7E518813B7
:100D300085C072F086C073F087C074F088C075F00B
:100D4000120000017551800B826F75517525896FF6
:100D500074AFADEF06F0AFEF06F0B0EF06F08981AB
:100D60008951D8B4B6EF06F0B8EF06F0CDEF06F033
:100D70008929D8A4BEEF06F0C0EF06F0C8EF06F050
:100D8000000E726F000E736F000E746F000E756FA1
:100D9000748F000E756FD5EF06F0000E726F000EA7
:100DA000736F000E746F000E756F7951800B821B8C
:100DB000795179258A6F78AFE0EF06F0E2EF06F01F
:100DC000E3EF06F08A818A51D8B4E9EF06F0EBEF41
:100DD00006F000EF07F08A29D8A4F1EF06F0F3EF50
:100DE00006F0FBEF06F0000E766F000E776F000E38
:100DF000786F000E796F788F000E796F08EF07F02B
:100E0000000E766F000E776F000E786F000E796F10
:100E10007651771178117911D8A411EF07F013EFFB
:100E200007F02BEF07F0000E726F000E736F000ECD
:100E3000746F000E756F800E74137F0E75138251E0
:100E4000751372C072F073C073F074C074F075C023
:100E500075F06EEF08F08951D8A431EF07F033EF49
:100E600007F03DEF07F0000E726F000E736F000E7B
:100E7000746F000E756F6EEF08F08A5189C07AF0BA
:100E80007B6B7A5F000E7B5B7F0E7A25836F000E93
:100E90007B21846F72C07EF073C07FF074C080F0DD
:100EA00075C081F0000E726F000E736F000E746FCC
:100EB000000E756F000E856F000E866F000E876F37
:100EC000000E886F000E8A6F9EEF07F08A51D8B42B
:100ED0006CEF07F06EEF07F085EF07F0D8907E37E4
:100EE0007F3780378137D8907237733774377537CB
:100EF00088AF7DEF07F07FEF07F080EF07F072819A
:100F0000D890853786378737883776517E5D775119
:100F10007F597851805979518159D8A092EF07F0C3
:100F200094EF07F09DEF07F0888D76517E5F775143
:100F30007F5B7851805B7951815B8A2B190E8A65C2
:100F4000A4EF07F0A6EF07F066EF07F07E517F11E0
:100F500080118111D8B4AFEF07F0B1EF07F0C9EFFE
:100F600007F08581C9EF07F0D8907237733774376F
:100F7000753788AFBEEF07F0C0EF07F0C1EF07F09D
:100F80007281D89085378637873788378307D8A00E
:100F9000840774AFCEEF07F0D0EF07F0B4EF07F09F
:100FA000000E8A6F88AFD7EF07F0D9EF07F0FDEF9B
:100FB00007F0FF0E85157A6FFF0E86157B6FFF0E0B
:100FC00087157C6F7F0E88157D6F7A517B117C11A0
:100FD0007D11D8B4EEEF07F0F0EF07F0F4EF07F073
:100FE000010E8A6FFDEF07F072A1F9EF07F0FBEF3A
:100FF00007F0FDEF07F0F0EF07F08A51D8B403EFE8
:1010000008F005EF08F029EF08F0010E7227000E36
:1010100073237423752375A110EF08F012EF08F005
:1010200029EF08F072C07AF073C07BF074C07CF0D6
:1010300075C07DF07D357D337C337B337A337AC068
:1010400072F07BC073F07CC074F07DC075F0834B90
:10105000842B84BF34EF08F0845108E18329D8A0A1
:1010600034EF08F036EF08F041EF08F0000E846F1F
:101070008369000E726F000E736F000E746F000EA6
:10108000756F84BF4EEF08F0845106E18305D8B038
:101090004CEF08F04EEF08F05CEF08F0000E846FA4
:1010A000000E836F000E726F000E736F000E746F70
:1010B000000E756F000E826F83C089F089A163EF07
:1010C00008F065EF08F068EF08F0748F69EF08F03A
:1010D000749FD8908931756F1FEF07F012000001DF
:1010E00020EE04F0A651D926A751DA226F0078FF2E
:1010F000AAF06F0074FFABF020EE04F0A851D926DF
:10110000A951DA226F0078FFACF06F0074FFADF0E8
:10111000AA51AC5DB06FAB51AD59B16FB1BF95EF96
:1011200008F093EF08F0A1EF08F0000EA16F000E99
:10113000A26F700EA36F420EA46F17EC0FF077EF43
:1011400009F0000EB66F000E276E020E266EB6C0B6
:1011500024F0256AECEC0CF0D89024362536245087
:101160000001A825D96E2550A921DA6E6F0078FFFD
:10117000AAF06F0074FFABF0000E276E020E266E11
:10118000B6C024F0256AECEC0CF0D8902436253655
:1011900024500001A625D96E2550A721DA6E6F00D4
:1011A00078FFACF06F0074FFADF0AA51AC5DAE6F8C
:1011B000AB51AD59AF6F010E276E2C0E266EAEC02F
:1011C00024F0AFC025F0ECEC0CF024C064F025C096
:1011D00065F00001000E65BFFF0E666F676F010EC0
:1011E00080EC0AF064C0B2F065C0B3F066C0B4F041
:1011F00067C0B5F00001B651040DDE0EF324D96EC0
:10120000000EF420DA6E6F0078FF99F06F0078FF1F
:101210009AF06F0078FF9BF06F0078FF9CF0B2C0EF
:1012200060F0B3C061F0B4C062F0B5C063F0000E0E
:10123000646F000E656FA00E666F410E676F18EC4D
:1012400002F060C09DF061C09EF062C09FF063C07C
:10125000A0F01AEC0EF00001B651AA6FAB6BD8905B
:10126000AA37AB37D890AA37AB37E20EAA25D96E8A
:10127000000EAB21DA6E6F0078FF99F06F0078FFF7
:101280009AF06F0078FF9BF06F0078FF9CF0000EE3
:101290006C6F000E6D6FA00E6E6F410E6F6FB2C05F
:1012A00070F0B3C071F0B4C072F0B5C073F043EC2D
:1012B0000FF06CC09DF06DC09EF06EC09FF06FC0CF
:1012C000A0F01AEC0EF0020E0001B627030EB66570
:1012D0006CEF09F06EEF09F0A3EF08F02F0E00019C
:1012E000AA6FBF0EE82EFED7AA2FFCD700D012009F
:1012F00050EC10F0140E246E1F0E256E87EC12F0C9
:10130000EBEC0EF0CBA287EF09F089EF09F082EF4A
:1013100009F0030E00016D6F3C0E6E6F0F0E6F6FC4
:101320000A0E706F000E716F030E5CEC0BF0D28E24
:10133000D28CCBB29EEF09F0A0EF09F030EF0AF0AB
:101340003901969D060E256E010E266E050E276E3E
:1013500010EC10F001010651D8B4B1EF09F0B3EF71
:1013600009F0BCEF09F0730E0619D8B4BAEF09F012
:10137000BCEF09F0CEEF09F0030E00016D6F3C0EDB
:101380006E6F0F0E6F6F0A0E706F000E716F030E8F
:101390005CEC0BF0EBEC0EF02CEF0AF0000E156F8E
:1013A00015510001B76FB86B010EB727000EB823B7
:1013B000060EB725D96E010EB821DA6EDF50B96F6F
:1013C000B951646F656B666B676B010E80EC0AF058
:1013D00064C072F065C073F066C074F067C075F0E9
:1013E000000E0001766F000E776FC80E786F420E08
:1013F000796FA1EC06F072C011F173C012F174C0E4
:1014000013F175C014F101011551040DDE0EF32422
:10141000D96E000EF420DA6E6F0078FF99F06F003D
:1014200078FF9AF06F0078FF9BF06F0078FF9CF0D8
:1014300011C19DF012C19EF013C19FF014C1A0F024
:101440001AEC0EF00101152B030E15652AEF0AF0B8
:101450002CEF0AF0D0EF09F03901968D99EF09F0E1
:101460000001EE05D8A437EF0AF039EF0AF03DEF9E
:101470000AF0EBEC0EF099EF09F0300E29EC11F0C8
:101480000001B76FB7AF47EF0AF049EF0AF064EF1A
:101490000AF0EE51D8A44FEF0AF051EF0AF064EFD2
:1014A0000AF00B0E646F010E656FA6EC0DF0000ED6
:1014B0000001A66F010EA76F0B0EA86F010EA96F9A
:1014C0006FEC08F099EF09F0020EEE19D8A46BEF5B
:1014D0000AF06DEF0AF07CEF0AF0030E6D6F3C0E20
:1014E0006E6F0E0E6F6F0A0E706F000E716F030E2F
:1014F0005CEC0BF099EF09F099EF09F00EEF00F0BA
:1015000000016C6F00016C51D8B489EF0AF08BEFC9
:101510000AF0ADEF0AF067BF92EF0AF090EF0AF021
:10152000ADEF0AF064C068F065C069F066C06AF0AB
:1015300067C06BF0681F691F6A1F6B1F682B000E66
:1015400069236A236B2368C06EF069C06FF06AC0BC
:1015500070F06BC071F0B5EF0AF064C06EF065C05A
:101560006FF066C070F067C071F06451651166116C
:101570006711D8A4BEEF0AF0C0EF0AF0CAEF0AF074
:10158000000E646F000E656F000E666F000E676FD1
:101590005BEF0BF0960E6D6FD4EF0AF06D2BD890C9
:1015A000713370336F336E33000E6E15686F000E3B
:1015B0006F15696F000E70156A6FFE0E71156B6FF7
:1015C000685169116A116B11D8A4E9EF0AF0EBEFC9
:1015D0000AF0CEEF0AF0F9EF0AF06D2B010E6E273C
:1015E000000E6F2370237123D890713370336F33E3
:1015F0006E33000E6E15686F000E6F15696F000E6A
:1016000070156A6FFF0E71156B6F685169116A1161
:101610006B11D8A40EEF0BF010EF0BF0EDEF0AF00A
:1016200018EF0BF06D07D8906E376F377037713742
:1016300070BF1DEF0BF01FEF0BF027EF0BF0020E4A
:101640006D6125EF0BF027EF0BF012EF0BF06DB192
:101650002CEF0BF02EEF0BF02FEF0BF0709FD890CC
:101660006D336DC068F0696B6A6B6B6B68C06BF053
:101670006A6B696B686B68516E1369516F136A51BD
:1016800070136B5171136C51D8B449EF0BF04BEFE1
:101690000BF053EF0BF067BF52EF0BF050EF0BF076
:1016A00053EF0BF0718F6EC064F06FC065F070C0C7
:1016B00066F071C067F01200BC8E2D0E256E040E10
:1016C000266E010E276E500E53EC0EF00001715184
:1016D000D8B46DEF0BF06FEF0BF073EF0BF0ADECD8
:1016E0000FF075EF0BF0C6EC11F01F0E0001776FD5
:1016F000770E256E000E266E010E276E010E53EC3E
:101700000EF06D0E256E000E266E010E276E030E76
:1017100053EC0EF06E0E256E000E266E010E276E37
:10172000050E53EC0EF06F0E256E000E266E010EA8
:10173000276E060E53EC0EF01F0E0001786F780E28
:10174000256E000E266E010E276E040E53EC0EF071
:1017500020EE30F010EE72F0040E6F006FFFE3FF2A
:10176000E806FBE2010E0001726F020E736F030EBA
:10177000746F040E756F70C076F0720E256E000ED9
:10178000266E050E276E0B0E53EC0EF0020E0001B6
:10179000786F780E256E000E266E010E276E1C0ED9
:1017A00053EC0EF0070E0001786F780E256E000ED8
:1017B000266E010E276E1D0E53EC0EF075EC12F026
:1017C000E0EC11F0D3EC11F0120000018D358E35F4
:1017D000946F9451D8A4EFEF0BF0F1EF0BF0FBEF07
:1017E0000BF0000E8B6F000E8C6F000E8D6F000ED5
:1017F0008E6F68EF0CF08BC08FF08CC090F08DC0B6
:1018000091F08EC092F0200E0BEF0CF0D890923336
:10181000913390338F33E82E06EF0CF08F51936F96
:101820008D8FFF0E8B17FF0E8C17FF0E8D17000E7E
:101830008E17960E945F94BF22EF0CF020EF0CF001
:1018400038EF0CF09451800A970FD8B02AEF0CF0C3
:101850002CEF0CF02EEF0CF0F1EF0BF0D8908E3354
:101860008D338C338B33943F2EEF0CF050EF0CF014
:101870001F0E94653EEF0CF040EF0CF048EF0CF0BB
:10188000F1EF0BF0D8908B378C378D378E3794076C
:101890009451D8A44EEF0CF050EF0CF042EF0CF046
:1018A0009351D8B456EF0CF058EF0CF060EF0CF0F9
:1018B0008E1F8D1F8C1F8B6D000E8C238D238E230E
:1018C0008BC08BF08CC08CF08DC08DF08EC08EF0F4
:1018D0001200BC8E2D0E026E040E036E010E046EFD
:1018E000500E89EC0EF01650D8B479EF0CF07BEF67
:1018F0000CF07FEF0CF030EC10F081EF0CF042ECCC
:1019000012F01F0E1C6E1C0E026E000E036E010EF6
:10191000046E010E89EC0EF0120E026E000E036EC4
:10192000010E046E030E89EC0EF0130E026E000E13
:10193000036E010E046E050E89EC0EF0140E026E9D
:10194000000E036E010E046E060E89EC0EF01F0EE3
:101950001D6E1D0E026E000E036E010E046E040E4F
:1019600089EC0EF020EE30F010EE17F0040E6F0050
:101970006FFFE3FFE806FBE2010E176E020E186E22
:10198000030E196E040E1A6E15C01BF0170E026EB0
:10199000000E036E050E046E0B0E89EC0EF0020EA7
:1019A0001D6E1D0E026E000E036E010E046E1C0EE7
:1019B00089EC0EF0070E1D6E1D0E026E000E036EFA
:1019C000010E046E1D0E89EC0EF081EC12F05AEC43
:1019D00012F04EEC12F01200000E0001616F27BEF3
:1019E000F6EF0CF0F4EF0CF0FCEF0CF0266C271E79
:1019F000D8B0272A010E616F25BE03EF0DF001EF6D
:101A00000DF009EF0DF0246C251ED8B0252A010E2B
:101A1000611B000E636F000E626F26502710D8B452
:101A200014EF0DF016EF0DF03EEF0DF0010E606FAC
:101A30001EEF0DF0D89026362736602B27AE23EF09
:101A40000DF025EF0DF01AEF0DF0D89062376337E7
:101A50002650245C27502558D8A031EF0DF033EFE5
:101A60000DF038EF0DF02650245E2750255A628184
:101A7000D89027322632602F25EF0DF06151D8B46F
:101A800044EF0DF046EF0DF04AEF0DF0626D631F6D
:101A9000D8B0632B62C024F063C025F01200000EA2
:101AA000BA6E010EBB6E8F0EBC6EC268620EC36E44
:101AB000200EC46E9F0E3A01606F840E506F000EB0
:101AC000406F000E816F000E516F000E416F000ECF
:101AD000616F000E5A6F000E5B6F000E6A6F000E92
:101AE0006B6F000E426F180E526F000E626F4369EB
:101AF00053696369446954691F0E646F846957931D
:101B000056835593000E246E000E256E8CEC12F059
:101B10000D0E3A01106F0D0ECE6F100E136F0E0EDC
:101B2000116F1F0E146F220E0C6F0F0E126F0B0E23
:101B3000E16F160EDE6F0C0EE26F090E0A6F210EBA
:101B40000B6F1E0E166F150EDF6F1200320E0001A6
:101B50006A6F6A2929EC11F00001666F6651686F9F
:101B6000676B6A5129EC11F00001696F69516713C5
:101B7000000E6813CE0E6A25246E256AFF0E2522FC
:101B8000000E276E020E266EECEC0CF0D890243678
:101B90002536245000016425D96E25506521DA6E62
:101BA00060009FF1DEFF6000A3F1DDFF020E6A27F7
:101BB000360E6A65DEEF0DF0E0EF0DF0A9EF0DF0E7
:101BC0001200CC0EF66E240EF76E000EF86E00EECC
:101BD000DEF010EE11F009006F00D7FFEEFFE550C8
:101BE000E150F9E12A0EF66E250EF76E000EF86E42
:101BF00000EE38F010EE05F009006F00D7FFEEFFA1
:101C0000E550E150F9E100EEBAF0240EEE6AE80684
:101C1000FDE100EE30F0080EEE6AE806FDE1080E88
:101C2000D56E000ED66E000ED76E000EF86E000157
:101C300078EF09F09DC076F09EC077F09FC078F0F5
:101C4000A0C079F09BC064F09CC065F00001666B99
:101C5000676B000E80EC0AF064C072F065C073F030
:101C600066C074F067C075F079EC04F072C08BF058
:101C700073C08CF074C08DF075C08EF0E5EC0BF085
:101C80008BC095F08CC096F002D852EF0EF0050094
:101C90000001FA6E9951FD6E9A51FE6EF850FF6E7A
:101CA000FA50120012000001626FBC9E00016251E6
:101CB000200975EC11F0000E0001636F7EEF0EF04D
:101CC00063512524606F000E2620616F600083F150
:101CD000F6FF600087F1F7FFF86A030EF76403D0A0
:101CE0000800F55007D06F00DBFFE9FF6F00DFFF52
:101CF000EAFFEF5075EC11F00001632B2750635D94
:101D0000D8A085EF0EF087EF0EF060EF0EF0BC8EDE
:101D10001200076EBC9E0750200987EC11F0000EE0
:101D2000086EB0EF0EF008500224056E000E03207E
:101D3000066E600017F0F6FF60001BF0F7FFF86A10
:101D4000030EF76403D00800F55007D06F00DBFFE7
:101D5000E9FF6F00DFFFEAFFEF5087EC11F0082A80
:101D60000450085CD8A0B7EF0EF0B9EF0EF093EF77
:101D70000EF0BC8E12006F0060FF1FF06F00D8FFE6
:101D800020F06F00DCFF21F06F00E0FF22F06F0019
:101D9000D4FF23F0390196ADD0EF0EF0D2EF0EF064
:101DA000DBEF0EF0A6ADD7EF0EF0D9EF0EF0DBEFC4
:101DB0000EF0CFEC0FF060008FF0F5FF60008BF0BD
:101DC000F8FF600087F0F7FF600083F0F6FF600027
:101DD0007FF0D8FF1100000E0001A16FA151040D8A
:101DE000DE0EF324D96E000EF420DA6E6F0078FF59
:101DF00099F06F0078FF9AF06F0078FF9BF06F000A
:101E000078FF9CF0000E9D6F000E9E6F000E9F6F7E
:101E1000000EA06F1AEC0EF00001A12B030EA165BD
:101E200014EF0FF016EF0FF0EEEF0EF01200000EB1
:101E30000001A56FA551040DDE0EF324D96E000E2E
:101E4000F420DA6E6F0078FF99F06F0078FF9AF057
:101E50006F0078FF9BF06F0078FF9CF0A1C09DF0B1
:101E6000A2C09EF0A3C09FF0A4C0A0F01AEC0EF098
:101E70000001A52B030EA56540EF0FF042EF0FF018
:101E80001AEF0FF01200000E0001701B000E711B04
:101E9000000E721B800E731B6CC060F06DC061F091
:101EA0006EC062F06FC063F070C064F071C065F026
:101EB00072C066F073C067F018EC02F060C06CF09E
:101EC00061C06DF062C06EF063C06FF0120000017F
:101ED000606FBC9E0001605175EC11F0000E0001B6
:101EE000616F7FEF0FF061512524D96E000E26201F
:101EF000DA6E000E75EC11F0DF6E0001612B2750D9
:101F0000615DD8A086EF0FF088EF0FF073EF0FF050
:101F1000BC8E1200370E026E000E036E010E046EB0
:101F2000000E6FEC10F037C01EF00B0E1E160B0EDD
:101F30001E609DEF0FF09FEF0FF0ACEF0FF0030E60
:101F4000126E3C0E136E0F0E146E0A0E156E000EFE
:101F5000166E030E69EC0CF012006FEC12F020EE1E
:101F600038F010EE67F0040E6F006FFFE3FFE80635
:101F7000FBE2670E0001646F000E656F050E666F71
:101F80003DEC11F00A0E00016C6F6C0E256E000E18
:101F9000266E010E276E000E53EC0EF01200390172
:101FA000A69D2C502D10D8B4D8EF0FF0DAEF0FF01B
:101FB000E7EF0FF002D8E7EF0FF00500FA6E2C50B4
:101FC000FD6E2D50FE6EF850FF6EFA5012002EC0BE
:101FD00001F02FC002F013EC11F03901968D1200C0
:101FE000000EA76E000EA86E060EA96EA568A46866
:101FF0003901A69DA4506F0094FE26F0276A26C0E2
:1020000027F0266A26102E6E27502F6E968D300EE2
:10201000246E250E256E87EC12F0070EA66E1200B8
:10202000BC9E610E75EC11F0000E0001606F25EF93
:1020300010F060512524D96E000E2620DA6E000EB5
:1020400075EC11F0DF6E0001602B2750605DD8A0A9
:102050002CEF10F02EEF10F019EF10F0BC8E1200E4
:102060007BEC12F020EE38F010EE0CF0040E6F0056
:102070006FFFE3FFE806FBE20C0E096E000E0A6E2E
:10208000050E0B6E50EC11F00A0E116E110E026E61
:10209000000E036E010E046E000E89EC0EF01200AD
:1020A00091EC12F063EC11F04FEC0DF02AEC12F011
:1020B00036EC12F0AAEC11F0FAEC11F012EC12F07E
:1020C000B8EC11F0F0EC0FF01EEC12F006EC12F090
:1020D000FAEC10F0EDEC11F099EC11F01200056E35
:1020E000BC9E055087EC11F0000E066E83EF10F0D9
:1020F00006500224D96E000E0320DA6E000E87EC23
:1021000011F0DF6E062A0450065CD8A08AEF10F0AA
:102110008CEF10F078EF10F0BC8E120095C097F0A5
:1021200096C098F00001D89098339733D8909833A0
:1021300097339751656E95C097F0030E9717060E6B
:10214000986FD8909737982FA1EF10F09751646E41
:10215000120095C097F096C098F00001D89098337F
:102160009733D890983397339751696E95C097F00D
:10217000030E9717060E986FD8909737982FBCEFDD
:1021800010F09751686E120095C097F096C098F0C5
:102190000001D89098339733D8909833973397515C
:1021A0006D6E95C097F0030E9717060E986FD89036
:1021B0009737982FD7EF10F097516C6E120095C09B
:1021C00097F096C098F00001D89098339733D89044
:1021D000983397339751616E95C097F0030E971718
:1021E000060E986FD8909737982FF2EF10F097510E
:1021F000606E1200000EB36E000EB46E010EB56E6E
:10220000B168B0683901A491B0506F00C4FE24F0E9
:10221000256A24C025F0246A2410286E2550296ED2
:10222000010EB26E1200A6A418EF11F01AEF11F011
:1022300023EF11F0A6900250A56E600007F0A4FFF6
:10224000A68028EF11F00250A56E600007F0A4FFF1
:102250001200256EBB90100EE82EFED72550800987
:10226000FF0A75EC11F0000E75EC11F0266EBB80C4
:10227000100EE82EFED72650120064C025F065C06F
:1022800026F066C027F0100E53EC0EF064C025F067
:1022900065C026F066C027F00A0E53EC0EF012005F
:1022A00009C002F00AC003F00BC004F0100E89EC64
:1022B0000EF009C002F00AC003F00BC004F00A0ED1
:1022C00089EC0EF01200000E3901C06F000EC16FD4
:1022D000000EC26F000EC36F000EC46F000EC56FFC
:1022E000000EC66F000EC76F1200246E010E3D0176
:1022F000126F600093F011FD3901A2A982EF11F075
:1023000084EF11F07CEF11F03D0110511200016ECD
:10231000010E3D01126F600007F011FD3901A2A905
:1023200094EF11F096EF11F08EEF11F03D01105186
:102330001200040E3D01736F800E746F180E756FDE
:10234000030E7B6F000E796F000E7A6F000E766FB2
:102350006C691200010EAE6E200EAD6E080EAF6EEF
:10236000AB68000EAA6E3901A495F00EAC6E120097
:10237000850E7A6E000E7B6E000E796E000E786E02
:102380003F015E51F30B04095E6F12000B0E00015A
:10239000646F640E256E000E266E010E276E000E11
:1023A00053EC0EF01200000E0001626F620E256EFB
:1023B000000E266E010E276E070E67EC0FF012005E
:1023C000400E0001646F640E256E000E266E010E35
:1023D000276E070E53EC0EF01200830E3D01146FB2
:1023E000D40E156F030E166F000E1C6F020E196FC0
:1023F000C49C1200800E626E190E616E400E606EFB
:102400003F015F513F0B40095F6F1200800E666E07
:10241000190E656E400E646E3F015F51CF0B1009BF
:102420005F6F1200800E6A6E190E696E400E686E44
:102430003F015F51F30B04095F6F1200800E6E6E57
:102440007F0E6D6EC00E6C6E3F015F51FC0B01097B
:102450005F6F1200600E3901D96F400EDB6F200EE6
:10246000DD6F070EDF6F000EDE6F1200820E7E6ED4
:10247000000E7D6E000E7C6E3F015E51FC0B01096B
:102480005E6F12000B0E096E090E026E000E036ED7
:10249000010E046E000E89EC0EF01200000E076EA5
:1024A000070E026E000E036E010E046E070E6FEC37
:1024B00010F01200400E096E090E026E000E036E3F
:1024C000010E046E070E89EC0EF012008821E40262
:0D24D0005221E4021C21E402BE21E40201BD
:1024DE00BC9EE10E75EC11F0BC8E1200BC9EE20E9D
:1024EE0075EC11F0BC8E1200BC9EE10E87EC11F063
:1024FE00BC8E1200BC9EE20E87EC11F0BC8E120058
:10250E0024C02CF025C02DF0120024C02AF025C0C6
:10251E002BF01200D28A3901869D120001020304AB
:01252E0004A8
:02253000120097
:020000040020DA
:10000000FF0FFF0FFF0FFF0FFF0FFF0FFF0FFF0F80
:020000040030CA
:0A0000008CFFF4EF9FFFFFDFFFFF0E
:00000001FF
